{
  "contractName": "EventTicketSystem",
  "abi": [
    {
      "inputs": [],
      "stateMutability": "nonpayable",
      "type": "constructor"
    },
    {
      "anonymous": false,
      "inputs": [
        {
          "indexed": true,
          "internalType": "address",
          "name": "owner",
          "type": "address"
        },
        {
          "indexed": true,
          "internalType": "address",
          "name": "approved",
          "type": "address"
        },
        {
          "indexed": true,
          "internalType": "uint256",
          "name": "tokenId",
          "type": "uint256"
        }
      ],
      "name": "Approval",
      "type": "event"
    },
    {
      "anonymous": false,
      "inputs": [
        {
          "indexed": true,
          "internalType": "address",
          "name": "owner",
          "type": "address"
        },
        {
          "indexed": true,
          "internalType": "address",
          "name": "operator",
          "type": "address"
        },
        {
          "indexed": false,
          "internalType": "bool",
          "name": "approved",
          "type": "bool"
        }
      ],
      "name": "ApprovalForAll",
      "type": "event"
    },
    {
      "anonymous": false,
      "inputs": [
        {
          "indexed": true,
          "internalType": "uint256",
          "name": "id",
          "type": "uint256"
        },
        {
          "indexed": false,
          "internalType": "string",
          "name": "name",
          "type": "string"
        },
        {
          "indexed": false,
          "internalType": "string",
          "name": "description",
          "type": "string"
        },
        {
          "indexed": false,
          "internalType": "string",
          "name": "imagePath",
          "type": "string"
        },
        {
          "indexed": false,
          "internalType": "uint256",
          "name": "maxTickets",
          "type": "uint256"
        },
        {
          "indexed": false,
          "internalType": "uint256",
          "name": "price",
          "type": "uint256"
        },
        {
          "indexed": false,
          "internalType": "address",
          "name": "owner",
          "type": "address"
        }
      ],
      "name": "NewEvent",
      "type": "event"
    },
    {
      "anonymous": false,
      "inputs": [
        {
          "indexed": true,
          "internalType": "uint256",
          "name": "id",
          "type": "uint256"
        },
        {
          "indexed": false,
          "internalType": "uint256",
          "name": "ticketId",
          "type": "uint256"
        },
        {
          "indexed": false,
          "internalType": "bool",
          "name": "sold",
          "type": "bool"
        }
      ],
      "name": "NewTicket",
      "type": "event"
    },
    {
      "anonymous": false,
      "inputs": [
        {
          "indexed": true,
          "internalType": "uint256",
          "name": "id",
          "type": "uint256"
        },
        {
          "indexed": false,
          "internalType": "uint256",
          "name": "ticketId",
          "type": "uint256"
        },
        {
          "indexed": false,
          "internalType": "bool",
          "name": "sold",
          "type": "bool"
        }
      ],
      "name": "PurchaseTicket",
      "type": "event"
    },
    {
      "anonymous": false,
      "inputs": [
        {
          "indexed": true,
          "internalType": "address",
          "name": "from",
          "type": "address"
        },
        {
          "indexed": true,
          "internalType": "address",
          "name": "to",
          "type": "address"
        },
        {
          "indexed": true,
          "internalType": "uint256",
          "name": "tokenId",
          "type": "uint256"
        }
      ],
      "name": "Transfer",
      "type": "event"
    },
    {
      "inputs": [
        {
          "internalType": "address",
          "name": "to",
          "type": "address"
        },
        {
          "internalType": "uint256",
          "name": "tokenId",
          "type": "uint256"
        }
      ],
      "name": "approve",
      "outputs": [],
      "stateMutability": "nonpayable",
      "type": "function"
    },
    {
      "inputs": [
        {
          "internalType": "address",
          "name": "owner",
          "type": "address"
        }
      ],
      "name": "balanceOf",
      "outputs": [
        {
          "internalType": "uint256",
          "name": "",
          "type": "uint256"
        }
      ],
      "stateMutability": "view",
      "type": "function",
      "constant": true
    },
    {
      "inputs": [
        {
          "internalType": "uint256",
          "name": "",
          "type": "uint256"
        }
      ],
      "name": "events",
      "outputs": [
        {
          "internalType": "string",
          "name": "name",
          "type": "string"
        },
        {
          "internalType": "string",
          "name": "description",
          "type": "string"
        },
        {
          "internalType": "string",
          "name": "imagePath",
          "type": "string"
        },
        {
          "internalType": "uint256",
          "name": "maxTickets",
          "type": "uint256"
        },
        {
          "internalType": "uint256",
          "name": "price",
          "type": "uint256"
        },
        {
          "internalType": "uint256",
          "name": "ticketsMinted",
          "type": "uint256"
        },
        {
          "internalType": "address",
          "name": "owner",
          "type": "address"
        }
      ],
      "stateMutability": "view",
      "type": "function",
      "constant": true
    },
    {
      "inputs": [
        {
          "internalType": "uint256",
          "name": "tokenId",
          "type": "uint256"
        }
      ],
      "name": "getApproved",
      "outputs": [
        {
          "internalType": "address",
          "name": "",
          "type": "address"
        }
      ],
      "stateMutability": "view",
      "type": "function",
      "constant": true
    },
    {
      "inputs": [
        {
          "internalType": "address",
          "name": "owner",
          "type": "address"
        },
        {
          "internalType": "address",
          "name": "operator",
          "type": "address"
        }
      ],
      "name": "isApprovedForAll",
      "outputs": [
        {
          "internalType": "bool",
          "name": "",
          "type": "bool"
        }
      ],
      "stateMutability": "view",
      "type": "function",
      "constant": true
    },
    {
      "inputs": [],
      "name": "name",
      "outputs": [
        {
          "internalType": "string",
          "name": "",
          "type": "string"
        }
      ],
      "stateMutability": "view",
      "type": "function",
      "constant": true
    },
    {
      "inputs": [
        {
          "internalType": "uint256",
          "name": "tokenId",
          "type": "uint256"
        }
      ],
      "name": "ownerOf",
      "outputs": [
        {
          "internalType": "address",
          "name": "",
          "type": "address"
        }
      ],
      "stateMutability": "view",
      "type": "function",
      "constant": true
    },
    {
      "inputs": [
        {
          "internalType": "address",
          "name": "from",
          "type": "address"
        },
        {
          "internalType": "address",
          "name": "to",
          "type": "address"
        },
        {
          "internalType": "uint256",
          "name": "tokenId",
          "type": "uint256"
        }
      ],
      "name": "safeTransferFrom",
      "outputs": [],
      "stateMutability": "nonpayable",
      "type": "function"
    },
    {
      "inputs": [
        {
          "internalType": "address",
          "name": "from",
          "type": "address"
        },
        {
          "internalType": "address",
          "name": "to",
          "type": "address"
        },
        {
          "internalType": "uint256",
          "name": "tokenId",
          "type": "uint256"
        },
        {
          "internalType": "bytes",
          "name": "_data",
          "type": "bytes"
        }
      ],
      "name": "safeTransferFrom",
      "outputs": [],
      "stateMutability": "nonpayable",
      "type": "function"
    },
    {
      "inputs": [
        {
          "internalType": "address",
          "name": "operator",
          "type": "address"
        },
        {
          "internalType": "bool",
          "name": "approved",
          "type": "bool"
        }
      ],
      "name": "setApprovalForAll",
      "outputs": [],
      "stateMutability": "nonpayable",
      "type": "function"
    },
    {
      "inputs": [
        {
          "internalType": "bytes4",
          "name": "interfaceId",
          "type": "bytes4"
        }
      ],
      "name": "supportsInterface",
      "outputs": [
        {
          "internalType": "bool",
          "name": "",
          "type": "bool"
        }
      ],
      "stateMutability": "view",
      "type": "function",
      "constant": true
    },
    {
      "inputs": [],
      "name": "symbol",
      "outputs": [
        {
          "internalType": "string",
          "name": "",
          "type": "string"
        }
      ],
      "stateMutability": "view",
      "type": "function",
      "constant": true
    },
    {
      "inputs": [
        {
          "internalType": "uint256",
          "name": "",
          "type": "uint256"
        }
      ],
      "name": "tickets",
      "outputs": [
        {
          "internalType": "bool",
          "name": "sold",
          "type": "bool"
        },
        {
          "internalType": "uint256",
          "name": "eventId",
          "type": "uint256"
        }
      ],
      "stateMutability": "view",
      "type": "function",
      "constant": true
    },
    {
      "inputs": [
        {
          "internalType": "uint256",
          "name": "tokenId",
          "type": "uint256"
        }
      ],
      "name": "tokenURI",
      "outputs": [
        {
          "internalType": "string",
          "name": "",
          "type": "string"
        }
      ],
      "stateMutability": "view",
      "type": "function",
      "constant": true
    },
    {
      "inputs": [
        {
          "internalType": "address",
          "name": "from",
          "type": "address"
        },
        {
          "internalType": "address",
          "name": "to",
          "type": "address"
        },
        {
          "internalType": "uint256",
          "name": "tokenId",
          "type": "uint256"
        }
      ],
      "name": "transferFrom",
      "outputs": [],
      "stateMutability": "nonpayable",
      "type": "function"
    },
    {
      "inputs": [
        {
          "internalType": "string",
          "name": "_name",
          "type": "string"
        },
        {
          "internalType": "string",
          "name": "_description",
          "type": "string"
        },
        {
          "internalType": "string",
          "name": "_imagePath",
          "type": "string"
        },
        {
          "internalType": "uint256",
          "name": "_ticketCount",
          "type": "uint256"
        },
        {
          "internalType": "uint256",
          "name": "_price",
          "type": "uint256"
        }
      ],
      "name": "createEvent",
      "outputs": [],
      "stateMutability": "nonpayable",
      "type": "function"
    },
    {
      "inputs": [
        {
          "internalType": "uint256",
          "name": "_eventId",
          "type": "uint256"
        }
      ],
      "name": "mintTicket",
      "outputs": [
        {
          "internalType": "uint256",
          "name": "_ticketId",
          "type": "uint256"
        }
      ],
      "stateMutability": "nonpayable",
      "type": "function"
    },
    {
      "inputs": [
        {
          "internalType": "uint256",
          "name": "_eventId",
          "type": "uint256"
        },
        {
          "internalType": "uint256",
          "name": "_ticketId",
          "type": "uint256"
        }
      ],
      "name": "purchaseTicket",
      "outputs": [],
      "stateMutability": "payable",
      "type": "function",
      "payable": true
    }
  ],
  "bytecode": "0x60806040523480156200001157600080fd5b506040518060400160405280601381526020017f4576656e74205469636b65742053797374656d000000000000000000000000008152506040518060400160405280600381526020017f4554530000000000000000000000000000000000000000000000000000000000815250816000908051906020019062000096929190620000b8565b508060019080519060200190620000af929190620000b8565b505050620001cc565b828054620000c69062000197565b90600052602060002090601f016020900481019282620000ea576000855562000136565b82601f106200010557805160ff191683800117855562000136565b8280016001018555821562000136579182015b828111156200013557825182559160200191906001019062000118565b5b50905062000145919062000149565b5090565b5b80821115620001645760008160009055506001016200014a565b5090565b7f4e487b7100000000000000000000000000000000000000000000000000000000600052602260045260246000fd5b60006002820490506001821680620001b057607f821691505b602082108103620001c657620001c562000168565b5b50919050565b6136b580620001dc6000396000f3fe6080604052600436106101095760003560e01c80636352211e11610095578063b88d4fde11610064578063b88d4fde146103ba578063bdbbb0cb146103e3578063c87b56dd146103ff578063e985e9c51461043c578063f5f00d841461047957610109565b80636352211e146102ec57806370a082311461032957806395d89b4114610366578063a22cb4651461039157610109565b80630b791430116100dc5780630b791430146101dc57806323b872dd1461021f578063256d52f61461024857806342842e0e1461028557806350b44712146102ae57610109565b806301ffc9a71461010e57806306fdde031461014b578063081812fc14610176578063095ea7b3146101b3575b600080fd5b34801561011a57600080fd5b5061013560048036038101906101309190612142565b6104a2565b604051610142919061218a565b60405180910390f35b34801561015757600080fd5b50610160610584565b60405161016d919061223e565b60405180910390f35b34801561018257600080fd5b5061019d60048036038101906101989190612296565b610616565b6040516101aa9190612304565b60405180910390f35b3480156101bf57600080fd5b506101da60048036038101906101d5919061234b565b61069b565b005b3480156101e857600080fd5b5061020360048036038101906101fe9190612296565b6107b2565b604051610216979695949392919061239a565b60405180910390f35b34801561022b57600080fd5b506102466004803603810190610241919061241e565b6109ac565b005b34801561025457600080fd5b5061026f600480360381019061026a9190612296565b610a0c565b60405161027c9190612471565b60405180910390f35b34801561029157600080fd5b506102ac60048036038101906102a7919061241e565b610bdb565b005b3480156102ba57600080fd5b506102d560048036038101906102d09190612296565b610bfb565b6040516102e392919061248c565b60405180910390f35b3480156102f857600080fd5b50610313600480360381019061030e9190612296565b610c2c565b6040516103209190612304565b60405180910390f35b34801561033557600080fd5b50610350600480360381019061034b91906124b5565b610cdd565b60405161035d9190612471565b60405180910390f35b34801561037257600080fd5b5061037b610d94565b604051610388919061223e565b60405180910390f35b34801561039d57600080fd5b506103b860048036038101906103b3919061250e565b610e26565b005b3480156103c657600080fd5b506103e160048036038101906103dc9190612683565b610e3c565b005b6103fd60048036038101906103f89190612706565b610e9e565b005b34801561040b57600080fd5b5061042660048036038101906104219190612296565b611036565b604051610433919061223e565b60405180910390f35b34801561044857600080fd5b50610463600480360381019061045e9190612746565b6110dd565b604051610470919061218a565b60405180910390f35b34801561048557600080fd5b506104a0600480360381019061049b9190612827565b611171565b005b60007f80ac58cd000000000000000000000000000000000000000000000000000000007bffffffffffffffffffffffffffffffffffffffffffffffffffffffff1916827bffffffffffffffffffffffffffffffffffffffffffffffffffffffff1916148061056d57507f5b5e139f000000000000000000000000000000000000000000000000000000007bffffffffffffffffffffffffffffffffffffffffffffffffffffffff1916827bffffffffffffffffffffffffffffffffffffffffffffffffffffffff1916145b8061057d575061057c826112fe565b5b9050919050565b60606000805461059390612925565b80601f01602080910402602001604051908101604052809291908181526020018280546105bf90612925565b801561060c5780601f106105e15761010080835404028352916020019161060c565b820191906000526020600020905b8154815290600101906020018083116105ef57829003601f168201915b5050505050905090565b600061062182611368565b610660576040517f08c379a0000000000000000000000000000000000000000000000000000000008152600401610657906129c8565b60405180910390fd5b6004600083815260200190815260200160002060009054906101000a900473ffffffffffffffffffffffffffffffffffffffff169050919050565b60006106a682610c2c565b90508073ffffffffffffffffffffffffffffffffffffffff168373ffffffffffffffffffffffffffffffffffffffff1603610716576040517f08c379a000000000000000000000000000000000000000000000000000000000815260040161070d90612a5a565b60405180910390fd5b8073ffffffffffffffffffffffffffffffffffffffff166107356113d4565b73ffffffffffffffffffffffffffffffffffffffff16148061076457506107638161075e6113d4565b6110dd565b5b6107a3576040517f08c379a000000000000000000000000000000000000000000000000000000000815260040161079a90612aec565b60405180910390fd5b6107ad83836113dc565b505050565b60076020528060005260406000206000915090508060000180546107d590612925565b80601f016020809104026020016040519081016040528092919081815260200182805461080190612925565b801561084e5780601f106108235761010080835404028352916020019161084e565b820191906000526020600020905b81548152906001019060200180831161083157829003601f168201915b50505050509080600101805461086390612925565b80601f016020809104026020016040519081016040528092919081815260200182805461088f90612925565b80156108dc5780601f106108b1576101008083540402835291602001916108dc565b820191906000526020600020905b8154815290600101906020018083116108bf57829003601f168201915b5050505050908060020180546108f190612925565b80601f016020809104026020016040519081016040528092919081815260200182805461091d90612925565b801561096a5780601f1061093f5761010080835404028352916020019161096a565b820191906000526020600020905b81548152906001019060200180831161094d57829003601f168201915b5050505050908060030154908060040154908060050154908060060160009054906101000a900473ffffffffffffffffffffffffffffffffffffffff16905087565b6109bd6109b76113d4565b82611495565b6109fc576040517f08c379a00000000000000000000000000000000000000000000000000000000081526004016109f390612b7e565b60405180910390fd5b610a07838383611573565b505050565b6000816007600082815260200190815260200160002060060160009054906101000a900473ffffffffffffffffffffffffffffffffffffffff1673ffffffffffffffffffffffffffffffffffffffff163373ffffffffffffffffffffffffffffffffffffffff1614610ab3576040517f08c379a0000000000000000000000000000000000000000000000000000000008152600401610aaa90612bea565b60405180910390fd5b600760008481526020019081526020016000206005015460076000858152602001908152602001600020600301541015610b22576040517f08c379a0000000000000000000000000000000000000000000000000000000008152600401610b1990612c56565b60405180910390fd5b610b2c60066117d9565b91506040518060400160405280600015158152602001848152506009600084815260200190815260200160002060008201518160000160006101000a81548160ff02191690831515021790555060208201518160010155905050610b9033836117e7565b610b9a6006611805565b827f9f41b9a03498e4f86bae6fa078528b027a8fdbceba0194b00b2340643ffd9b9c836000604051610bcd929190612c76565b60405180910390a250919050565b610bf683838360405180602001604052806000815250610e3c565b505050565b60096020528060005260406000206000915090508060000160009054906101000a900460ff16908060010154905082565b6000806002600084815260200190815260200160002060009054906101000a900473ffffffffffffffffffffffffffffffffffffffff169050600073ffffffffffffffffffffffffffffffffffffffff168173ffffffffffffffffffffffffffffffffffffffff1603610cd4576040517f08c379a0000000000000000000000000000000000000000000000000000000008152600401610ccb90612d11565b60405180910390fd5b80915050919050565b60008073ffffffffffffffffffffffffffffffffffffffff168273ffffffffffffffffffffffffffffffffffffffff1603610d4d576040517f08c379a0000000000000000000000000000000000000000000000000000000008152600401610d4490612da3565b60405180910390fd5b600360008373ffffffffffffffffffffffffffffffffffffffff1673ffffffffffffffffffffffffffffffffffffffff168152602001908152602001600020549050919050565b606060018054610da390612925565b80601f0160208091040260200160405190810160405280929190818152602001828054610dcf90612925565b8015610e1c5780601f10610df157610100808354040283529160200191610e1c565b820191906000526020600020905b815481529060010190602001808311610dff57829003601f168201915b5050505050905090565b610e38610e316113d4565b838361181b565b5050565b610e4d610e476113d4565b83611495565b610e8c576040517f08c379a0000000000000000000000000000000000000000000000000000000008152600401610e8390612b7e565b60405180910390fd5b610e9884848484611987565b50505050565b34600760008481526020019081526020016000206004015414610ef6576040517f08c379a0000000000000000000000000000000000000000000000000000000008152600401610eed90612e35565b60405180910390fd5b6000610f376007600085815260200190815260200160002060060160009054906101000a900473ffffffffffffffffffffffffffffffffffffffff16610cdd565b11610f77576040517f08c379a0000000000000000000000000000000000000000000000000000000008152600401610f6e90612ec7565b60405180910390fd5b610fc86007600084815260200190815260200160002060060160009054906101000a900473ffffffffffffffffffffffffffffffffffffffff16338360405180602001604052806000815250611987565b60016009600083815260200190815260200160002060000160006101000a81548160ff021916908315150217905550817ff63ee76789333b15034f5bc003ed334694a7aef60232d5eb61b53020aa8d554582600160405161102a929190612c76565b60405180910390a25050565b606061104182611368565b611080576040517f08c379a000000000000000000000000000000000000000000000000000000000815260040161107790612f59565b60405180910390fd5b600061108a6119e3565b905060008151116110aa57604051806020016040528060008152506110d5565b806110b4846119fa565b6040516020016110c5929190612fb5565b6040516020818303038152906040525b915050919050565b6000600560008473ffffffffffffffffffffffffffffffffffffffff1673ffffffffffffffffffffffffffffffffffffffff16815260200190815260200160002060008373ffffffffffffffffffffffffffffffffffffffff1673ffffffffffffffffffffffffffffffffffffffff16815260200190815260200160002060009054906101000a900460ff16905092915050565b600061117d60086117d9565b905060006040518060e00160405280888152602001878152602001868152602001858152602001848152602001600081526020013373ffffffffffffffffffffffffffffffffffffffff168152509050806007600084815260200190815260200160002060008201518160000190805190602001906111fd929190612033565b50602082015181600101908051906020019061121a929190612033565b506040820151816002019080519060200190611237929190612033565b50606082015181600301556080820151816004015560a0820151816005015560c08201518160060160006101000a81548173ffffffffffffffffffffffffffffffffffffffff021916908373ffffffffffffffffffffffffffffffffffffffff1602179055509050506112aa6008611805565b6112b382611b5a565b817fdedae6598bed889561da732a2b0440f849a2dec64a5b6ea50df6a79a00d738f08888888888336040516112ed96959493929190612fd9565b60405180910390a250505050505050565b60007f01ffc9a7000000000000000000000000000000000000000000000000000000007bffffffffffffffffffffffffffffffffffffffffffffffffffffffff1916827bffffffffffffffffffffffffffffffffffffffffffffffffffffffff1916149050919050565b60008073ffffffffffffffffffffffffffffffffffffffff166002600084815260200190815260200160002060009054906101000a900473ffffffffffffffffffffffffffffffffffffffff1673ffffffffffffffffffffffffffffffffffffffff1614159050919050565b600033905090565b816004600083815260200190815260200160002060006101000a81548173ffffffffffffffffffffffffffffffffffffffff021916908373ffffffffffffffffffffffffffffffffffffffff160217905550808273ffffffffffffffffffffffffffffffffffffffff1661144f83610c2c565b73ffffffffffffffffffffffffffffffffffffffff167f8c5be1e5ebec7d5bd14f71427d1e84f3dd0314c0f7b2291e5b200ac8c7c3b92560405160405180910390a45050565b60006114a082611368565b6114df576040517f08c379a00000000000000000000000000000000000000000000000000000000081526004016114d6906130c1565b60405180910390fd5b60006114ea83610c2c565b90508073ffffffffffffffffffffffffffffffffffffffff168473ffffffffffffffffffffffffffffffffffffffff16148061152c575061152b81856110dd565b5b8061156a57508373ffffffffffffffffffffffffffffffffffffffff1661155284610616565b73ffffffffffffffffffffffffffffffffffffffff16145b91505092915050565b8273ffffffffffffffffffffffffffffffffffffffff1661159382610c2c565b73ffffffffffffffffffffffffffffffffffffffff16146115e9576040517f08c379a00000000000000000000000000000000000000000000000000000000081526004016115e090613153565b60405180910390fd5b600073ffffffffffffffffffffffffffffffffffffffff168273ffffffffffffffffffffffffffffffffffffffff1603611658576040517f08c379a000000000000000000000000000000000000000000000000000000000815260040161164f906131e5565b60405180910390fd5b611663838383611c4b565b61166e6000826113dc565b6001600360008573ffffffffffffffffffffffffffffffffffffffff1673ffffffffffffffffffffffffffffffffffffffff16815260200190815260200160002060008282546116be9190613234565b925050819055506001600360008473ffffffffffffffffffffffffffffffffffffffff1673ffffffffffffffffffffffffffffffffffffffff16815260200190815260200160002060008282546117159190613268565b92505081905550816002600083815260200190815260200160002060006101000a81548173ffffffffffffffffffffffffffffffffffffffff021916908373ffffffffffffffffffffffffffffffffffffffff160217905550808273ffffffffffffffffffffffffffffffffffffffff168473ffffffffffffffffffffffffffffffffffffffff167fddf252ad1be2c89b69c2b068fc378daa952ba7f163c4a11628f55a4df523b3ef60405160405180910390a46117d4838383611c50565b505050565b600081600001549050919050565b611801828260405180602001604052806000815250611c55565b5050565b6001816000016000828254019250508190555050565b8173ffffffffffffffffffffffffffffffffffffffff168373ffffffffffffffffffffffffffffffffffffffff1603611889576040517f08c379a00000000000000000000000000000000000000000000000000000000081526004016118809061330a565b60405180910390fd5b80600560008573ffffffffffffffffffffffffffffffffffffffff1673ffffffffffffffffffffffffffffffffffffffff16815260200190815260200160002060008473ffffffffffffffffffffffffffffffffffffffff1673ffffffffffffffffffffffffffffffffffffffff16815260200190815260200160002060006101000a81548160ff0219169083151502179055508173ffffffffffffffffffffffffffffffffffffffff168373ffffffffffffffffffffffffffffffffffffffff167f17307eab39ab6107e8899845ad3d59bd9653f200f220920489ca2b5937696c318360405161197a919061218a565b60405180910390a3505050565b611992848484611573565b61199e84848484611cb0565b6119dd576040517f08c379a00000000000000000000000000000000000000000000000000000000081526004016119d49061339c565b60405180910390fd5b50505050565b606060405180602001604052806000815250905090565b606060008203611a41576040518060400160405280600181526020017f30000000000000000000000000000000000000000000000000000000000000008152509050611b55565b600082905060005b60008214611a73578080611a5c906133bc565b915050600a82611a6c9190613433565b9150611a49565b60008167ffffffffffffffff811115611a8f57611a8e612558565b5b6040519080825280601f01601f191660200182016040528015611ac15781602001600182028036833780820191505090505b5090505b60008514611b4e57600182611ada9190613234565b9150600a85611ae99190613464565b6030611af59190613268565b60f81b818381518110611b0b57611b0a613495565b5b60200101907effffffffffffffffffffffffffffffffffffffffffffffffffffffffffffff1916908160001a905350600a85611b479190613433565b9450611ac5565b8093505050505b919050565b600080600090505b6007600084815260200190815260200160002060030154811015611c4657611b8a6006611805565b611b9460066117d9565b91506040518060400160405280600015158152602001848152506009600084815260200190815260200160002060008201518160000160006101000a81548160ff02191690831515021790555060208201518160010155905050611bf833836117e7565b827f9f41b9a03498e4f86bae6fa078528b027a8fdbceba0194b00b2340643ffd9b9c836000604051611c2b929190612c76565b60405180910390a28080611c3e906133bc565b915050611b62565b505050565b505050565b505050565b611c5f8383611e37565b611c6c6000848484611cb0565b611cab576040517f08c379a0000000000000000000000000000000000000000000000000000000008152600401611ca29061339c565b60405180910390fd5b505050565b6000611cd18473ffffffffffffffffffffffffffffffffffffffff16612010565b15611e2a578373ffffffffffffffffffffffffffffffffffffffff1663150b7a02611cfa6113d4565b8786866040518563ffffffff1660e01b8152600401611d1c9493929190613519565b6020604051808303816000875af1925050508015611d5857506040513d601f19601f82011682018060405250810190611d55919061357a565b60015b611dda573d8060008114611d88576040519150601f19603f3d011682016040523d82523d6000602084013e611d8d565b606091505b506000815103611dd2576040517f08c379a0000000000000000000000000000000000000000000000000000000008152600401611dc99061339c565b60405180910390fd5b805181602001fd5b63150b7a0260e01b7bffffffffffffffffffffffffffffffffffffffffffffffffffffffff1916817bffffffffffffffffffffffffffffffffffffffffffffffffffffffff191614915050611e2f565b600190505b949350505050565b600073ffffffffffffffffffffffffffffffffffffffff168273ffffffffffffffffffffffffffffffffffffffff1603611ea6576040517f08c379a0000000000000000000000000000000000000000000000000000000008152600401611e9d906135f3565b60405180910390fd5b611eaf81611368565b15611eef576040517f08c379a0000000000000000000000000000000000000000000000000000000008152600401611ee69061365f565b60405180910390fd5b611efb60008383611c4b565b6001600360008473ffffffffffffffffffffffffffffffffffffffff1673ffffffffffffffffffffffffffffffffffffffff1681526020019081526020016000206000828254611f4b9190613268565b92505081905550816002600083815260200190815260200160002060006101000a81548173ffffffffffffffffffffffffffffffffffffffff021916908373ffffffffffffffffffffffffffffffffffffffff160217905550808273ffffffffffffffffffffffffffffffffffffffff16600073ffffffffffffffffffffffffffffffffffffffff167fddf252ad1be2c89b69c2b068fc378daa952ba7f163c4a11628f55a4df523b3ef60405160405180910390a461200c60008383611c50565b5050565b6000808273ffffffffffffffffffffffffffffffffffffffff163b119050919050565b82805461203f90612925565b90600052602060002090601f01602090048101928261206157600085556120a8565b82601f1061207a57805160ff19168380011785556120a8565b828001600101855582156120a8579182015b828111156120a757825182559160200191906001019061208c565b5b5090506120b591906120b9565b5090565b5b808211156120d25760008160009055506001016120ba565b5090565b6000604051905090565b600080fd5b600080fd5b60007fffffffff0000000000000000000000000000000000000000000000000000000082169050919050565b61211f816120ea565b811461212a57600080fd5b50565b60008135905061213c81612116565b92915050565b600060208284031215612158576121576120e0565b5b60006121668482850161212d565b91505092915050565b60008115159050919050565b6121848161216f565b82525050565b600060208201905061219f600083018461217b565b92915050565b600081519050919050565b600082825260208201905092915050565b60005b838110156121df5780820151818401526020810190506121c4565b838111156121ee576000848401525b50505050565b6000601f19601f8301169050919050565b6000612210826121a5565b61221a81856121b0565b935061222a8185602086016121c1565b612233816121f4565b840191505092915050565b600060208201905081810360008301526122588184612205565b905092915050565b6000819050919050565b61227381612260565b811461227e57600080fd5b50565b6000813590506122908161226a565b92915050565b6000602082840312156122ac576122ab6120e0565b5b60006122ba84828501612281565b91505092915050565b600073ffffffffffffffffffffffffffffffffffffffff82169050919050565b60006122ee826122c3565b9050919050565b6122fe816122e3565b82525050565b600060208201905061231960008301846122f5565b92915050565b612328816122e3565b811461233357600080fd5b50565b6000813590506123458161231f565b92915050565b60008060408385031215612362576123616120e0565b5b600061237085828601612336565b925050602061238185828601612281565b9150509250929050565b61239481612260565b82525050565b600060e08201905081810360008301526123b4818a612205565b905081810360208301526123c88189612205565b905081810360408301526123dc8188612205565b90506123eb606083018761238b565b6123f8608083018661238b565b61240560a083018561238b565b61241260c08301846122f5565b98975050505050505050565b600080600060608486031215612437576124366120e0565b5b600061244586828701612336565b935050602061245686828701612336565b925050604061246786828701612281565b9150509250925092565b6000602082019050612486600083018461238b565b92915050565b60006040820190506124a1600083018561217b565b6124ae602083018461238b565b9392505050565b6000602082840312156124cb576124ca6120e0565b5b60006124d984828501612336565b91505092915050565b6124eb8161216f565b81146124f657600080fd5b50565b600081359050612508816124e2565b92915050565b60008060408385031215612525576125246120e0565b5b600061253385828601612336565b9250506020612544858286016124f9565b9150509250929050565b600080fd5b600080fd5b7f4e487b7100000000000000000000000000000000000000000000000000000000600052604160045260246000fd5b612590826121f4565b810181811067ffffffffffffffff821117156125af576125ae612558565b5b80604052505050565b60006125c26120d6565b90506125ce8282612587565b919050565b600067ffffffffffffffff8211156125ee576125ed612558565b5b6125f7826121f4565b9050602081019050919050565b82818337600083830152505050565b6000612626612621846125d3565b6125b8565b90508281526020810184848401111561264257612641612553565b5b61264d848285612604565b509392505050565b600082601f83011261266a5761266961254e565b5b813561267a848260208601612613565b91505092915050565b6000806000806080858703121561269d5761269c6120e0565b5b60006126ab87828801612336565b94505060206126bc87828801612336565b93505060406126cd87828801612281565b925050606085013567ffffffffffffffff8111156126ee576126ed6120e5565b5b6126fa87828801612655565b91505092959194509250565b6000806040838503121561271d5761271c6120e0565b5b600061272b85828601612281565b925050602061273c85828601612281565b9150509250929050565b6000806040838503121561275d5761275c6120e0565b5b600061276b85828601612336565b925050602061277c85828601612336565b9150509250929050565b600067ffffffffffffffff8211156127a1576127a0612558565b5b6127aa826121f4565b9050602081019050919050565b60006127ca6127c584612786565b6125b8565b9050828152602081018484840111156127e6576127e5612553565b5b6127f1848285612604565b509392505050565b600082601f83011261280e5761280d61254e565b5b813561281e8482602086016127b7565b91505092915050565b600080600080600060a08688031215612843576128426120e0565b5b600086013567ffffffffffffffff811115612861576128606120e5565b5b61286d888289016127f9565b955050602086013567ffffffffffffffff81111561288e5761288d6120e5565b5b61289a888289016127f9565b945050604086013567ffffffffffffffff8111156128bb576128ba6120e5565b5b6128c7888289016127f9565b93505060606128d888828901612281565b92505060806128e988828901612281565b9150509295509295909350565b7f4e487b7100000000000000000000000000000000000000000000000000000000600052602260045260246000fd5b6000600282049050600182168061293d57607f821691505b6020821081036129505761294f6128f6565b5b50919050565b7f4552433732313a20617070726f76656420717565727920666f72206e6f6e657860008201527f697374656e7420746f6b656e0000000000000000000000000000000000000000602082015250565b60006129b2602c836121b0565b91506129bd82612956565b604082019050919050565b600060208201905081810360008301526129e1816129a5565b9050919050565b7f4552433732313a20617070726f76616c20746f2063757272656e74206f776e6560008201527f7200000000000000000000000000000000000000000000000000000000000000602082015250565b6000612a446021836121b0565b9150612a4f826129e8565b604082019050919050565b60006020820190508181036000830152612a7381612a37565b9050919050565b7f4552433732313a20617070726f76652063616c6c6572206973206e6f74206f7760008201527f6e6572206e6f7220617070726f76656420666f7220616c6c0000000000000000602082015250565b6000612ad66038836121b0565b9150612ae182612a7a565b604082019050919050565b60006020820190508181036000830152612b0581612ac9565b9050919050565b7f4552433732313a207472616e736665722063616c6c6572206973206e6f74206f60008201527f776e6572206e6f7220617070726f766564000000000000000000000000000000602082015250565b6000612b686031836121b0565b9150612b7382612b0c565b604082019050919050565b60006020820190508181036000830152612b9781612b5b565b9050919050565b7f4e6f742061206576656e74206f776e65722e0000000000000000000000000000600082015250565b6000612bd46012836121b0565b9150612bdf82612b9e565b602082019050919050565b60006020820190508181036000830152612c0381612bc7565b9050919050565b7f4e6f206d6f7265207469636b65747320746f206d696e00000000000000000000600082015250565b6000612c406016836121b0565b9150612c4b82612c0a565b602082019050919050565b60006020820190508181036000830152612c6f81612c33565b9050919050565b6000604082019050612c8b600083018561238b565b612c98602083018461217b565b9392505050565b7f4552433732313a206f776e657220717565727920666f72206e6f6e657869737460008201527f656e7420746f6b656e0000000000000000000000000000000000000000000000602082015250565b6000612cfb6029836121b0565b9150612d0682612c9f565b604082019050919050565b60006020820190508181036000830152612d2a81612cee565b9050919050565b7f4552433732313a2062616c616e636520717565727920666f7220746865207a6560008201527f726f206164647265737300000000000000000000000000000000000000000000602082015250565b6000612d8d602a836121b0565b9150612d9882612d31565b604082019050919050565b60006020820190508181036000830152612dbc81612d80565b9050919050565b7f76616c75652073686f756c64206265206571756c617320746f2074686520746960008201527f636b657420707269636500000000000000000000000000000000000000000000602082015250565b6000612e1f602a836121b0565b9150612e2a82612dc3565b604082019050919050565b60006020820190508181036000830152612e4e81612e12565b9050919050565b7f6f776e657220646f6573206e6f742068617665207469636b65747320746f207360008201527f656c6c0000000000000000000000000000000000000000000000000000000000602082015250565b6000612eb16023836121b0565b9150612ebc82612e55565b604082019050919050565b60006020820190508181036000830152612ee081612ea4565b9050919050565b7f4552433732314d657461646174613a2055524920717565727920666f72206e6f60008201527f6e6578697374656e7420746f6b656e0000000000000000000000000000000000602082015250565b6000612f43602f836121b0565b9150612f4e82612ee7565b604082019050919050565b60006020820190508181036000830152612f7281612f36565b9050919050565b600081905092915050565b6000612f8f826121a5565b612f998185612f79565b9350612fa98185602086016121c1565b80840191505092915050565b6000612fc18285612f84565b9150612fcd8284612f84565b91508190509392505050565b600060c0820190508181036000830152612ff38189612205565b905081810360208301526130078188612205565b9050818103604083015261301b8187612205565b905061302a606083018661238b565b613037608083018561238b565b61304460a08301846122f5565b979650505050505050565b7f4552433732313a206f70657261746f7220717565727920666f72206e6f6e657860008201527f697374656e7420746f6b656e0000000000000000000000000000000000000000602082015250565b60006130ab602c836121b0565b91506130b68261304f565b604082019050919050565b600060208201905081810360008301526130da8161309e565b9050919050565b7f4552433732313a207472616e736665722066726f6d20696e636f72726563742060008201527f6f776e6572000000000000000000000000000000000000000000000000000000602082015250565b600061313d6025836121b0565b9150613148826130e1565b604082019050919050565b6000602082019050818103600083015261316c81613130565b9050919050565b7f4552433732313a207472616e7366657220746f20746865207a65726f2061646460008201527f7265737300000000000000000000000000000000000000000000000000000000602082015250565b60006131cf6024836121b0565b91506131da82613173565b604082019050919050565b600060208201905081810360008301526131fe816131c2565b9050919050565b7f4e487b7100000000000000000000000000000000000000000000000000000000600052601160045260246000fd5b600061323f82612260565b915061324a83612260565b92508282101561325d5761325c613205565b5b828203905092915050565b600061327382612260565b915061327e83612260565b9250827fffffffffffffffffffffffffffffffffffffffffffffffffffffffffffffffff038211156132b3576132b2613205565b5b828201905092915050565b7f4552433732313a20617070726f766520746f2063616c6c657200000000000000600082015250565b60006132f46019836121b0565b91506132ff826132be565b602082019050919050565b60006020820190508181036000830152613323816132e7565b9050919050565b7f4552433732313a207472616e7366657220746f206e6f6e20455243373231526560008201527f63656976657220696d706c656d656e7465720000000000000000000000000000602082015250565b60006133866032836121b0565b91506133918261332a565b604082019050919050565b600060208201905081810360008301526133b581613379565b9050919050565b60006133c782612260565b91507fffffffffffffffffffffffffffffffffffffffffffffffffffffffffffffffff82036133f9576133f8613205565b5b600182019050919050565b7f4e487b7100000000000000000000000000000000000000000000000000000000600052601260045260246000fd5b600061343e82612260565b915061344983612260565b92508261345957613458613404565b5b828204905092915050565b600061346f82612260565b915061347a83612260565b92508261348a57613489613404565b5b828206905092915050565b7f4e487b7100000000000000000000000000000000000000000000000000000000600052603260045260246000fd5b600081519050919050565b600082825260208201905092915050565b60006134eb826134c4565b6134f581856134cf565b93506135058185602086016121c1565b61350e816121f4565b840191505092915050565b600060808201905061352e60008301876122f5565b61353b60208301866122f5565b613548604083018561238b565b818103606083015261355a81846134e0565b905095945050505050565b60008151905061357481612116565b92915050565b6000602082840312156135905761358f6120e0565b5b600061359e84828501613565565b91505092915050565b7f4552433732313a206d696e7420746f20746865207a65726f2061646472657373600082015250565b60006135dd6020836121b0565b91506135e8826135a7565b602082019050919050565b6000602082019050818103600083015261360c816135d0565b9050919050565b7f4552433732313a20746f6b656e20616c7265616479206d696e74656400000000600082015250565b6000613649601c836121b0565b915061365482613613565b602082019050919050565b600060208201905081810360008301526136788161363c565b905091905056fea264697066735822122008bebe80de3fb3e379951aec298ac15f0a0f8738016937ced94610faf96cd3b664736f6c634300080e0033",
  "immutableReferences": {},
  "source": "// SPDX-License-Identifier: MIT\r\npragma solidity >=0.4.22;\r\n\r\nimport \"@openzeppelin/contracts/token/ERC721/ERC721.sol\";\r\nimport \"@openzeppelin/contracts/utils/Counters.sol\";\r\n\r\n/**\r\n * @title EventTicketSystem\r\n * @author Brahma Reddy\r\n * @dev this contract is based on ERC721\r\n */\r\ncontract EventTicketSystem is ERC721 {\r\n\r\n    using Counters for Counters.Counter;\r\n    Counters.Counter _tokenIds;\r\n\r\n    event NewEvent(uint256 indexed id, string name, string description, string imagePath, uint256 maxTickets, uint256 price, address owner);\r\n\r\n    event NewTicket(uint256 indexed id, uint256 ticketId, bool sold);\r\n\r\n    event PurchaseTicket(uint256 indexed id, uint256 ticketId, bool sold);\r\n\r\n    struct Event {\r\n        string name;\r\n        string description;\r\n        string imagePath;\r\n        uint256 maxTickets;\r\n        uint256 price;\r\n        uint256 ticketsMinted;\r\n        address owner;\r\n    }\r\n\r\n    struct Ticket {\r\n        bool sold;\r\n        uint256 eventId;\r\n    }\r\n\r\n    mapping(uint256 => Event) public events;\r\n    Counters.Counter _eventIds;\r\n\r\n    mapping(uint256 => Ticket) public tickets;\r\n\r\n    constructor() ERC721(\"Event Ticket System\", \"ETS\") {}\r\n\r\n    // Modifier to check that the caller is the owner of event\r\n    modifier onlyEventOwner(uint256 _eventId) {\r\n        require(msg.sender == events[_eventId].owner, \"Not a event owner.\");\r\n        _;\r\n    }\r\n\r\n    // Create new event\r\n    function createEvent(string memory _name, string memory _description, \r\n             string memory _imagePath, uint256 _ticketCount, uint256 _price) public {\r\n        uint256 _eventId = _eventIds.current();\r\n        Event memory _event = Event(_name, _description, _imagePath, _ticketCount, _price, 0, msg.sender);\r\n        events[_eventId] = _event;\r\n        _eventIds.increment();\r\n        _mintAllTickets(_eventId);  \r\n        emit NewEvent(_eventId, _name, _description, _imagePath, _ticketCount, _price, msg.sender);\r\n    }\r\n\r\n    function _mintAllTickets(uint256 _eventId) private {\r\n        uint256 tokenId;\r\n        for(uint256 i = 0; i < events[_eventId].maxTickets; i++) {\r\n            _tokenIds.increment();\r\n            tokenId = _tokenIds.current();\r\n            tickets[tokenId] = Ticket(false, _eventId);  \r\n            _safeMint(msg.sender, tokenId);\r\n            emit NewTicket(_eventId, tokenId, false);\r\n        }\r\n    }\r\n\r\n    function mintTicket(uint256 _eventId) public onlyEventOwner(_eventId) returns(uint256 _ticketId){\r\n        require(events[_eventId].maxTickets >= events[_eventId].ticketsMinted, \"No more tickets to min\");\r\n        _ticketId = _tokenIds.current();\r\n        tickets[_ticketId] = Ticket(false, _eventId);\r\n        _safeMint(msg.sender, _ticketId);\r\n        _tokenIds.increment();\r\n        emit NewTicket(_eventId, _ticketId, false);\r\n    }\r\n\r\n    function purchaseTicket(uint256 _eventId, uint256 _ticketId) public payable {\r\n        require(events[_eventId].price == msg.value, \"value should be equlas to the ticket price\");\r\n        require(balanceOf(events[_eventId].owner) > 0, \"owner does not have tickets to sell\");        \r\n        _safeTransfer(events[_eventId].owner, msg.sender, _ticketId, \"\");\r\n        tickets[_ticketId].sold = true;\r\n        emit PurchaseTicket(_eventId, _ticketId, true);\r\n    }\r\n}",
  "sourcePath": "D:\\Blockchain\\EVENT_NFT\\truffle\\contracts\\EventTicketSystem.sol",
  "compiler": {
    "name": "solc",
    "version": "0.8.14+commit.80d49f37.Emscripten.clang"
  },
  "schemaVersion": "3.4.4",
  "updatedAt": "2022-07-04T12:10:53.871Z",
  "networkType": "ethereum",
  "devdoc": {
    "author": "Brahma Reddy",
    "details": "this contract is based on ERC721",
    "kind": "dev",
    "methods": {
      "approve(address,uint256)": {
        "details": "See {IERC721-approve}."
      },
      "balanceOf(address)": {
        "details": "See {IERC721-balanceOf}."
      },
      "getApproved(uint256)": {
        "details": "See {IERC721-getApproved}."
      },
      "isApprovedForAll(address,address)": {
        "details": "See {IERC721-isApprovedForAll}."
      },
      "name()": {
        "details": "See {IERC721Metadata-name}."
      },
      "ownerOf(uint256)": {
        "details": "See {IERC721-ownerOf}."
      },
      "safeTransferFrom(address,address,uint256)": {
        "details": "See {IERC721-safeTransferFrom}."
      },
      "safeTransferFrom(address,address,uint256,bytes)": {
        "details": "See {IERC721-safeTransferFrom}."
      },
      "setApprovalForAll(address,bool)": {
        "details": "See {IERC721-setApprovalForAll}."
      },
      "supportsInterface(bytes4)": {
        "details": "See {IERC165-supportsInterface}."
      },
      "symbol()": {
        "details": "See {IERC721Metadata-symbol}."
      },
      "tokenURI(uint256)": {
        "details": "See {IERC721Metadata-tokenURI}."
      },
      "transferFrom(address,address,uint256)": {
        "details": "See {IERC721-transferFrom}."
      }
    },
    "title": "EventTicketSystem",
    "version": 1
  },
  "userdoc": {
    "kind": "user",
    "methods": {},
    "version": 1
  }
}